:020000040000FA
:0400000080312B28F8
:100008007E1480310B1F09280A2829284E01191E41
:100018000E280F281A280F1E122813281A28400104
:1000280041088A0040080A0080312928991E1D28A5
:100038001E2829288F1E21282228292840013F0808
:100048008A003E080A00803129287E100900803184
:100058002D28FC01203084000030850028308331B1
:100068007F238031A0308400003085003030833118
:100078007F2380317E10400183310C2B4001E10049
:10008800DE01833176238031003A03194C284D284C
:1000980054288231502280314001DC005C08DE00A7
:1000A800243040015E06031D5A285B28F028DF0132
:1000B800E001833176238031003A031964286528EA
:1000C80076288231502280314001DC005F086107C8
:1000D800DD005D08860087015C0881000130DF07CC
:1000E8000030E03D40016008803ADC0080305C026E
:1000F800031D802808305F02031C832884285D289C
:1001080040016108073E8600870124300106031D6F
:100118008E288F28F028DA28610A86008701313076
:100128000106031D982899289B289816F028610A2B
:100138008600870130300106031DA328A428F02873
:100148009812F028610A8600870131300106031DE4
:10015800AE28AF28B1289814F028610A86008701D4
:1001680030300106031DB928BA28F0289810F02865
:10017800610A8600870131300106031DC428C5289D
:10018800C7281815F028610A860087013030010653
:10019800031DCF28D028F0281811F028ED30D800FA
:1001A8008230D900833140238031F02861088600ED
:1001B80087010108DC00DD015D08003A0319E52824
:1001C800D2285C08313A03199028033A0319A62863
:1001D800013A0319BC28D22808004001CF0048087A
:1001E80086008701403FCA00413FCB004A0884008F
:1001F8004B0885001200253A031D032904294929C3
:100208004808860087010130810741310318810AB7
:10021800B201B301B601B701FF30B400FF30B50039
:10022800480886008701403FCA00413FCB004A0882
:1002380084004B0885001200253A031D242925292E
:100248003E2948088600870101308107413103189B
:10025800810A2530F4000030F5004F08CA004A082A
:10026800F60081316D21803101304001C800003035
:10027800C9006C294808860087010130810741318F
:100288000318810AC801C9016C294808860087013A
:10029800403FCA00413FCB004A0884004B08850014
:1002A8000008CC00CD014C08F4004D08F5004F08BB
:1002B800CE004E08F60081316D218031400148089A
:1002C800860087010130810741310318810A3829E6
:1002D8000800760803197129722977297608031D01
:1002E800762977297C297408833185238131AD29C2
:1002F8007608083E8600870116000104031985293F
:100308008629A4297608083E86008701403FF70021
:10031800413FF8007608023E86008701403FF90019
:10032800413FFA007A08803AFB007808803A7B025D
:10033800031DA029770879020318A329A429AD2948
:100348007608023E86008701013081074131031893
:10035800810A08004E019912ED30F1000130F200D7
:100368008331912381314E011912CB30F1000230D3
:10037800F20083318B238131083042019F00903095
:100388009D0024309E0044309B009C01B630F10053
:100398000330F20083319D238131AE30F100033008
:1003A800F200833197238131B230F1000330F2003B
:1003B8008331A32381314001C201C701C60108303E
:1003C800F3007308C500FC01C401C3014E0199166E
:1003D80008007C08203E86008701810142011D1D1E
:1003E800F629F729022A7C08203E86008701811415
:1003F80040013D088A003C080A00823142019D1CE8
:10040800062A072A122A7C08203E86008701011541
:1004180040013B088A003A080A0082317C08203EE5
:1004280086008701010803191A2A1B2A222A40017B
:1004380039088A0038080A008231252A83312623A0
:1004480081310800F2004001450803192C2A2D2AA1
:10045800272A4E01191A312A322A362A72084201ED
:100468009A004D2A19127208F10040014708283EE7
:1004780086008701710881000130F1007108C70703
:1004880008304702031C492A4A2A4B2AC70101306F
:10049800C5024E0119160800400143080319552AE0
:1004A800562A502A4408203E860087010108F10098
:1004B8007108C2004408C83E860087010108F1009F
:1004C8007108F2000130F1007108C40708304402D5
:1004D800031C6F2A702A712AC4014E019912013037
:1004E8004001C3024E0199167208080040019801A4
:1004F80099019A013B30920070309300FF309400CC
:10050800FF307E01CE006030C3003730B800C40130
:10051800B901CF01BA01C501D0013730BB00F030B5
:10052800C600FF30D1003F30BC00F030C700FF30BC
:10053800D2000F309F000C307D01CB000800400135
:10054800D5005108D7005008D600B001B101BD2A26
:100558005630D3005308C8005208D4005408C900C4
:1005680055088031F120823140014808B007490818
:10057800B13D56088400570885001200031DC52A9E
:10058800C62AAC2A3108D1003008D000080008304B
:10059800400145020318D12AD22AEA2A4608283EF1
:1005A80086008701010842019A000130F0007008B6
:1005B8004001C60708304602031CE32AE42AE52A5C
:1005C800C6010130F0007008C507EC2A4E01191267
:1005D8000800473465346334653472346C346934E4
:1005E8002034623469347234203473346134793499
:1005F8003F34203467346934723469346E34693472
:100608007A342034283431342D34333429340034C6
:100618008331522383318B170B17633086000030E8
:10062800870008304001E20000301E00E20B192B61
:100638008331A923833163308031422083311F2BDA
:1006480080312B2842011908F0007C08C83E86003A
:100658008701700881000130F0007008FC0708303D
:100668007C02031C382B392B3A2BFC010130F0009B
:1006780070084001C30708005A304001DA005A08E0
:10068800DB005908D1005808D0005B30DA005A085E
:10069800D20000308231A3228331080083316C23D9
:1006A800833182317A22833183315F2383318131EF
:1006B800AE2183310800103051018D008F01910166
:1006C800053093009201101C6A2B6B2B672B0800D6
:1006D8004F0196019701980199019A019B019C018C
:1006E8009D01080040014308031D7B2B7D2B013031
:1006F8007E2B00300800640080010131890B802BBB
:100708000034F3007308823126228331080072080E
:100718004001C1007108C000080072084001BF0014
:100728007108BE00080072084001BB007108BA00D9
:10073800080072084001BD007108BC00080072087A
:100748004001B9007108B8000800400192129210E7
:100758001211080042011D121D16080083312623BC
:06076800833108000800C7
:020000040001F9
:0A000E009C3FFF3F9F3FFF3FFF3F75
:00000001FF
