:020000040000FA
:0400000080312B28F8
:100008007E1480310B1F09280A2829284E01191E41
:100018000E280F281A280F1E122813281A28400104
:1000280041088A0040080A0080312928991E1D28A5
:100038001E2829288F1E21282228292840013F0808
:100048008A003E080A00803129287E100900803184
:100058002D28FC01203084000030850028308331B1
:1000680075238031A0308400003085003030833122
:10007800752380317E1040018331022B4001E1005D
:10008800DE0183316C238031003A03194C284D2856
:1000980054288231462280314001DC005C08DE00B1
:1000A800243040015E06031D5A285B28E628DF013C
:1000B800E00183316C238031003A031964286528F4
:1000C80076288231462280314001DC005F086107D2
:1000D800DD005D08860087015C0881000130DF07CC
:1000E8000030E03D40016008803ADC0080305C026E
:1000F800031D802808305F02031C832884285D289C
:10010800CF28610A8600870131300106031D8D283A
:100118008E2890289816E628610A860087013030D4
:100128000106031D98289928E6289812E628610AEE
:100138008600870131300106031DA328A428A628BC
:100148009814E628610A8600870130300106031DED
:10015800AE28AF28E6289810E628610A86008701AD
:1001680031300106031DB928BA28BC281815E6281D
:10017800610A8600870130300106031DC428C5289E
:10018800E6281811E628E330D8008230D9008331F8
:1001980036238031E628400161088600870101087E
:1001A800DC00DD015D08003A0319DB28C7285C087C
:1001B800313A03198528033A03199B28013A031990
:1001C800B128C72808004001CF00480886008701E9
:1001D800403FCA00413FCB004A0884004B088500D5
:1001E8001200253A031DF928FA283F2948088600F5
:1001F80087010130810741310318810AB201B30137
:10020800B601B701FF30B400FF30B50048088600DA
:100218008701403FCA00413FCB004A0884004B0891
:1002280085001200253A031D1A291B29342948087C
:10023800860087010130810741310318810A253082
:10024800F4000030F5004F08CA004A08F600813172
:100258006321803101304001C8000030C9006229A3
:100268004808860087010130810741310318810A57
:10027800C801C9016229480886008701403FCA00B1
:10028800413FCB004A0884004B0885000008CC0099
:10029800CD014C08F4004D08F5004F08CE004E087B
:1002A800F6008131632180314001480886008701CA
:1002B8000130810741310318810A2E290800760888
:1002C8000319672968296D297608031D6C296D298A
:1002D8007229740883317B238131A3297608083E6B
:1002E800860087011600010403197B297C299A29B5
:1002F8007608083E86008701403FF700413FF80036
:100308007608023E86008701403FF900413FFA0027
:100318007A08803AFB007808803A7B02031D962908
:1003280077087902031899299A29A3297608023EA1
:10033800860087010130810741310318810A0800CE
:100348004E019912E330F1000130F2008331872326
:1003580081314E011912C130F1000230F2008331AF
:1003680081238131083042019F0090309D00243064
:100378009E0044309B009C01AC30F1000330F20039
:10038800833193238131A430F1000330F2008331AB
:100398008D238131A830F1000330F2008331992395
:1003A80081314001C201C701C6010830F30073085A
:1003B800C500FC01C401C3014E01991608007C0860
:1003C800203E86008701810142011D1DEC29ED298F
:1003D800F8297C08203E86008701811440013D08E9
:1003E8008A003C080A00813142019D1CFC29FD2934
:1003F800082A7C08203E86008701011540013B0839
:100408008A003A080A0082317C08203E860087016B
:1004180001080319102A112A182A400139088A00EC
:1004280038080A0082311B2A83311C2381310800D5
:10043800F200400145080319222A232A1D2A4E01E9
:10044800191A272A282A2C2A720842019A00432AB4
:1004580019127208F10040014708283E86008701FA
:10046800710881000130F1007108C70708304702A0
:10047800031C3F2A402A412AC7010130C5024E0108
:10048800191608004001430803194B2A4C2A462A2A
:100498004408203E860087010108F1007108C20067
:1004A8004408C83E860087010108F1007108F2007F
:1004B8000130F1007108C40708304402031C652AA2
:1004C800662A672AC4014E01991201304001C3020D
:1004D8004E019916720808004001980199019A0185
:1004E8003B30920070309300FF309400FF307E0163
:1004F800CE006030C3003730B800C401B901CF0165
:10050800BA01C501D0013730BB00F030C600FF305A
:10051800D1003F30BC00F030C700FF30D2000F30B0
:100528009F000C307D01CB0008004001D500510828
:10053800D7005008D600B001B101B32A5630D30015
:100548005308C8005208D4005408C900550880311F
:10055800E720823140014808B0074908B13D5608F4
:100568008400570885001200031DBB2ABC2AA22A52
:100578003108D1003008D000080008304001450299
:100588000318C72AC82AE02A4608283E8600870199
:10059800010842019A000130F00070084001C607C6
:1005A80008304602031CD92ADA2ADB2AC6010130A0
:1005B800F0007008C507E22A4E01191208004734F6
:1005C80065346334653472346C346934203462348D
:1005D8006934723420347334613479343F342034CC
:1005E80067346934723469346E3469347A34203447
:1005F800283431342D3433342934003483314823BA
:1006080083318B170B176330860000308700083062
:100618004001E20000301E00E20B0F2B83319F23C4
:1006280083316330803142208331152B80312B2870
:1006380042011908F0007C08C83E8600870170084E
:1006480081000130F0007008FC0708307C02031CB0
:100658002E2B2F2B302BFC010130F00070084001AD
:10066800C30708005A304001DA005A08DB0059086D
:10067800D1005808D0005B30DA005A08D2000030A8
:100688008231992283310800833162238331823198
:10069800702283318331552383318131A421833101
:1006A8000800103051018D008F0191010530930031
:1006B8009201101C602B612B5D2B08004F019601E5
:1006C8009701980199019A019B019C019D010800DD
:1006D80040014308031D712B732B0130742B00302C
:1006E8000800640080010131890B762B0034F30087
:1006F800730882311C228331080072084001C1004E
:100708007108C000080072084001BF007108BE00EF
:10071800080072084001BB007108BA00080072089E
:100728004001BD007108BC00080072084001B90012
:100738007108B800080040019212921012110800C6
:1007480042011D121D16080083311C238331080045
:02075800080097
:020000040001F9
:0A000E009C3FFF3F9F3FFF3FFF3F75
:00000001FF
